{
  "address": "0xC7b6fA6411EA810ed8c710dF3C2244fAD2F1761e",
  "abi": [
    {
      "inputs": [
        {
          "internalType": "address",
          "name": "vrfCoordinatorV2",
          "type": "address"
        },
        {
          "internalType": "uint256",
          "name": "entranceFee",
          "type": "uint256"
        },
        {
          "internalType": "bytes32",
          "name": "gasLane",
          "type": "bytes32"
        },
        {
          "internalType": "uint64",
          "name": "subscriptionId",
          "type": "uint64"
        },
        {
          "internalType": "uint32",
          "name": "callbackGasLimit",
          "type": "uint32"
        },
        {
          "internalType": "uint256",
          "name": "interval",
          "type": "uint256"
        }
      ],
      "stateMutability": "nonpayable",
      "type": "constructor"
    },
    {
      "inputs": [
        {
          "internalType": "address",
          "name": "have",
          "type": "address"
        },
        {
          "internalType": "address",
          "name": "want",
          "type": "address"
        }
      ],
      "name": "OnlyCoordinatorCanFulfill",
      "type": "error"
    },
    {
      "inputs": [
        {
          "internalType": "uint256",
          "name": "currentBalance",
          "type": "uint256"
        },
        {
          "internalType": "uint256",
          "name": "numPlayers",
          "type": "uint256"
        },
        {
          "internalType": "uint256",
          "name": "raffleState",
          "type": "uint256"
        }
      ],
      "name": "Raffle_UpkeepNotNeeded",
      "type": "error"
    },
    {
      "inputs": [],
      "name": "Raffle__NotEnoughEthEntered",
      "type": "error"
    },
    {
      "inputs": [],
      "name": "Raffle__NotOpen",
      "type": "error"
    },
    {
      "inputs": [],
      "name": "Raffle__TransferFailed",
      "type": "error"
    },
    {
      "anonymous": false,
      "inputs": [
        {
          "indexed": true,
          "internalType": "address",
          "name": "player",
          "type": "address"
        }
      ],
      "name": "RaffleEntered",
      "type": "event"
    },
    {
      "anonymous": false,
      "inputs": [
        {
          "indexed": true,
          "internalType": "uint256",
          "name": "requestId",
          "type": "uint256"
        }
      ],
      "name": "RequestedRaffleWinner",
      "type": "event"
    },
    {
      "anonymous": false,
      "inputs": [
        {
          "indexed": true,
          "internalType": "address",
          "name": "winner",
          "type": "address"
        }
      ],
      "name": "WinnerPicked",
      "type": "event"
    },
    {
      "inputs": [
        {
          "internalType": "bytes",
          "name": "",
          "type": "bytes"
        }
      ],
      "name": "checkUpkeep",
      "outputs": [
        {
          "internalType": "bool",
          "name": "upkeepNeeded",
          "type": "bool"
        },
        {
          "internalType": "bytes",
          "name": "",
          "type": "bytes"
        }
      ],
      "stateMutability": "view",
      "type": "function"
    },
    {
      "inputs": [],
      "name": "enterRaffle",
      "outputs": [],
      "stateMutability": "payable",
      "type": "function"
    },
    {
      "inputs": [],
      "name": "getEntranceFee",
      "outputs": [
        {
          "internalType": "uint256",
          "name": "",
          "type": "uint256"
        }
      ],
      "stateMutability": "view",
      "type": "function"
    },
    {
      "inputs": [],
      "name": "getInterval",
      "outputs": [
        {
          "internalType": "uint256",
          "name": "",
          "type": "uint256"
        }
      ],
      "stateMutability": "view",
      "type": "function"
    },
    {
      "inputs": [],
      "name": "getLatestTimeStamp",
      "outputs": [
        {
          "internalType": "uint256",
          "name": "",
          "type": "uint256"
        }
      ],
      "stateMutability": "view",
      "type": "function"
    },
    {
      "inputs": [],
      "name": "getNumWords",
      "outputs": [
        {
          "internalType": "uint32",
          "name": "",
          "type": "uint32"
        }
      ],
      "stateMutability": "pure",
      "type": "function"
    },
    {
      "inputs": [],
      "name": "getNumberOfPlayers",
      "outputs": [
        {
          "internalType": "uint256",
          "name": "",
          "type": "uint256"
        }
      ],
      "stateMutability": "view",
      "type": "function"
    },
    {
      "inputs": [
        {
          "internalType": "uint256",
          "name": "index",
          "type": "uint256"
        }
      ],
      "name": "getPlayer",
      "outputs": [
        {
          "internalType": "address",
          "name": "",
          "type": "address"
        }
      ],
      "stateMutability": "view",
      "type": "function"
    },
    {
      "inputs": [],
      "name": "getRaffleState",
      "outputs": [
        {
          "internalType": "enum Raffle.RaffleState",
          "name": "",
          "type": "uint8"
        }
      ],
      "stateMutability": "view",
      "type": "function"
    },
    {
      "inputs": [],
      "name": "getRecentWinner",
      "outputs": [
        {
          "internalType": "address",
          "name": "",
          "type": "address"
        }
      ],
      "stateMutability": "view",
      "type": "function"
    },
    {
      "inputs": [],
      "name": "getRequestConfirmations",
      "outputs": [
        {
          "internalType": "uint256",
          "name": "",
          "type": "uint256"
        }
      ],
      "stateMutability": "pure",
      "type": "function"
    },
    {
      "inputs": [],
      "name": "getSubscriptionId",
      "outputs": [
        {
          "internalType": "uint64",
          "name": "",
          "type": "uint64"
        }
      ],
      "stateMutability": "view",
      "type": "function"
    },
    {
      "inputs": [
        {
          "internalType": "bytes",
          "name": "",
          "type": "bytes"
        }
      ],
      "name": "performUpkeep",
      "outputs": [],
      "stateMutability": "nonpayable",
      "type": "function"
    },
    {
      "inputs": [
        {
          "internalType": "uint256",
          "name": "requestId",
          "type": "uint256"
        },
        {
          "internalType": "uint256[]",
          "name": "randomWords",
          "type": "uint256[]"
        }
      ],
      "name": "rawFulfillRandomWords",
      "outputs": [],
      "stateMutability": "nonpayable",
      "type": "function"
    }
  ],
  "transactionHash": "0x3681e6011e13bc77d77f8701ba4a3c648afa86b02902e1f4195b4ff607c9d87b",
  "args": [
    "0x2Ca8E0C643bDe4C2E08ab1fA0da3401AdAD7734D",
    "10000000000000000",
    "0x79d3d8832d904592c0bf9818b621522c988bb8b0c05cdc3b15aea1b6e8db0c15",
    "7753",
    "500000",
    "30"
  ],
  "numDeployments": 1,
  "solcInputHash": "af49d9d66ca08f63aff4c7ca38b41731",
  "bytecode": "0x6101606040523480156200001257600080fd5b50604051620018f9380380620018f9833981810160405281019062000038919062000294565b858073ffffffffffffffffffffffffffffffffffffffff1660808173ffffffffffffffffffffffffffffffffffffffff1681525050508460a081815250508573ffffffffffffffffffffffffffffffffffffffff1660c08173ffffffffffffffffffffffffffffffffffffffff16815250508360e081815250508267ffffffffffffffff166101008167ffffffffffffffff16815250508163ffffffff166101208163ffffffff16815250506000600160146101000a81548160ff021916908360018111156200010d576200010c62000330565b5b0217905550426002819055508061014081815250505050505050506200035f565b600080fd5b600073ffffffffffffffffffffffffffffffffffffffff82169050919050565b6000620001608262000133565b9050919050565b620001728162000153565b81146200017e57600080fd5b50565b600081519050620001928162000167565b92915050565b6000819050919050565b620001ad8162000198565b8114620001b957600080fd5b50565b600081519050620001cd81620001a2565b92915050565b6000819050919050565b620001e881620001d3565b8114620001f457600080fd5b50565b6000815190506200020881620001dd565b92915050565b600067ffffffffffffffff82169050919050565b6200022d816200020e565b81146200023957600080fd5b50565b6000815190506200024d8162000222565b92915050565b600063ffffffff82169050919050565b6200026e8162000253565b81146200027a57600080fd5b50565b6000815190506200028e8162000263565b92915050565b60008060008060008060c08789031215620002b457620002b36200012e565b5b6000620002c489828a0162000181565b9650506020620002d789828a01620001bc565b9550506040620002ea89828a01620001f7565b9450506060620002fd89828a016200023c565b93505060806200031089828a016200027d565b92505060a06200032389828a01620001bc565b9150509295509295509295565b7f4e487b7100000000000000000000000000000000000000000000000000000000600052602160045260246000fd5b60805160a05160c05160e051610100516101205161014051611523620003d66000396000818161083501526108de015260006106eb0152600081816106c80152610906015260006106a70152600061066b015260008181610340015261043d01526000818161037d01526103d101526115236000f3fe6080604052600436106100dd5760003560e01c806353a2c19a1161007f57806391ad27b41161005957806391ad27b41461027e578063de3d9fb7146102a9578063e55ae4e8146102d4578063fd6673f514610311576100dd565b806353a2c19a146101ea5780635f1b0fd8146102155780636e04ff0d14610240576100dd565b80632cfcc539116100bb5780632cfcc53914610161578063320229eb1461016b5780634585e33b14610196578063473f1ddc146101bf576100dd565b806309bc33a7146100e2578063115cbaf51461010d5780631fe543e314610138575b600080fd5b3480156100ee57600080fd5b506100f761033c565b6040516101049190610c6e565b60405180910390f35b34801561011957600080fd5b50610122610364565b60405161012f9190610d00565b60405180910390f35b34801561014457600080fd5b5061015f600480360381019061015a9190610eb4565b61037b565b005b61016961043b565b005b34801561017757600080fd5b506101806105aa565b60405161018d9190610c6e565b60405180910390f35b3480156101a257600080fd5b506101bd60048036038101906101b89190610f6b565b6105b4565b005b3480156101cb57600080fd5b506101d46107b3565b6040516101e19190610ff9565b60405180910390f35b3480156101f657600080fd5b506101ff6107dd565b60405161020c9190611033565b60405180910390f35b34801561022157600080fd5b5061022a6107e6565b6040516102379190610c6e565b60405180910390f35b34801561024c57600080fd5b5061026760048036038101906102629190611103565b6107f3565b6040516102759291906111ef565b60405180910390f35b34801561028a57600080fd5b506102936108da565b6040516102a09190610c6e565b60405180910390f35b3480156102b557600080fd5b506102be610902565b6040516102cb9190611242565b60405180910390f35b3480156102e057600080fd5b506102fb60048036038101906102f6919061125d565b61092a565b6040516103089190610ff9565b60405180910390f35b34801561031d57600080fd5b50610326610971565b6040516103339190610c6e565b60405180910390f35b60007f0000000000000000000000000000000000000000000000000000000000000000905090565b6000600160149054906101000a900460ff16905090565b7f000000000000000000000000000000000000000000000000000000000000000073ffffffffffffffffffffffffffffffffffffffff163373ffffffffffffffffffffffffffffffffffffffff161461042d57337f00000000000000000000000000000000000000000000000000000000000000006040517f1cf993f400000000000000000000000000000000000000000000000000000000815260040161042492919061128a565b60405180910390fd5b610437828261097d565b5050565b7f0000000000000000000000000000000000000000000000000000000000000000341015610495576040517f066d781f00000000000000000000000000000000000000000000000000000000815260040160405180910390fd5b600060018111156104a9576104a8610c89565b5b600160149054906101000a900460ff1660018111156104cb576104ca610c89565b5b14610502576040517f1425571c00000000000000000000000000000000000000000000000000000000815260040160405180910390fd5b6000339080600181540180825580915050600190039060005260206000200160009091909190916101000a81548173ffffffffffffffffffffffffffffffffffffffff021916908373ffffffffffffffffffffffffffffffffffffffff1602179055503373ffffffffffffffffffffffffffffffffffffffff167f634f3211e3a4e43fee5a21ad9f87ca153b300fc78b1c557a2057dbe9c63bcb4760405160405180910390a2565b6000600254905090565b60006105ce604051806020016040528060008152506107f3565b5090508061063d5747600080549050600160149054906101000a900460ff1660018111156105ff576105fe610c89565b5b6040517fe059521b000000000000000000000000000000000000000000000000000000008152600401610634939291906112b3565b60405180910390fd5b60018060146101000a81548160ff0219169083600181111561066257610661610c89565b5b021790555060007f000000000000000000000000000000000000000000000000000000000000000073ffffffffffffffffffffffffffffffffffffffff16635d3b1d307f00000000000000000000000000000000000000000000000000000000000000007f000000000000000000000000000000000000000000000000000000000000000060037f000000000000000000000000000000000000000000000000000000000000000060016040518663ffffffff1660e01b815260040161072c959493929190611320565b602060405180830381600087803b15801561074657600080fd5b505af115801561075a573d6000803e3d6000fd5b505050506040513d601f19601f8201168201806040525081019061077e9190611388565b9050807fcd6e45c8998311cab7e9d4385596cac867e20a0587194b954fa3a731c93ce78b60405160405180910390a250505050565b6000600160009054906101000a900473ffffffffffffffffffffffffffffffffffffffff16905090565b60006001905090565b6000600361ffff16905090565b60006060600080600181111561080c5761080b610c89565b5b600160149054906101000a900460ff16600181111561082e5761082d610c89565b5b14905060007f00000000000000000000000000000000000000000000000000000000000000006002544261086291906113e4565b119050600080600080549050119050600080471190508380156108825750825b801561088b5750815b80156108945750805b9550856040518060400160405280600381526020017f30783000000000000000000000000000000000000000000000000000000000008152509550955050505050915091565b60007f0000000000000000000000000000000000000000000000000000000000000000905090565b60007f0000000000000000000000000000000000000000000000000000000000000000905090565b600080828154811061093f5761093e611418565b5b9060005260206000200160009054906101000a900473ffffffffffffffffffffffffffffffffffffffff169050919050565b60008080549050905090565b600080805490508260008151811061099857610997611418565b5b60200260200101516109aa9190611476565b905060008082815481106109c1576109c0611418565b5b9060005260206000200160009054906101000a900473ffffffffffffffffffffffffffffffffffffffff16905080600160006101000a81548173ffffffffffffffffffffffffffffffffffffffff021916908373ffffffffffffffffffffffffffffffffffffffff1602179055506000600160146101000a81548160ff02191690836001811115610a5557610a54610c89565b5b0217905550600067ffffffffffffffff811115610a7557610a74610d71565b5b604051908082528060200260200182016040528015610aa35781602001602082028036833780820191505090505b5060009080519060200190610ab9929190610bae565b504260028190555060008173ffffffffffffffffffffffffffffffffffffffff1647604051610ae7906114d8565b60006040518083038185875af1925050503d8060008114610b24576040519150601f19603f3d011682016040523d82523d6000602084013e610b29565b606091505b5050905080610b64576040517fa1d04b3900000000000000000000000000000000000000000000000000000000815260040160405180910390fd5b8173ffffffffffffffffffffffffffffffffffffffff167f5b690ec4a06fe979403046eaeea5b3ce38524683c3001f662c8b5a829632f7df60405160405180910390a25050505050565b828054828255906000526020600020908101928215610c27579160200282015b82811115610c265782518260006101000a81548173ffffffffffffffffffffffffffffffffffffffff021916908373ffffffffffffffffffffffffffffffffffffffff16021790555091602001919060010190610bce565b5b509050610c349190610c38565b5090565b5b80821115610c51576000816000905550600101610c39565b5090565b6000819050919050565b610c6881610c55565b82525050565b6000602082019050610c836000830184610c5f565b92915050565b7f4e487b7100000000000000000000000000000000000000000000000000000000600052602160045260246000fd5b60028110610cc957610cc8610c89565b5b50565b6000819050610cda82610cb8565b919050565b6000610cea82610ccc565b9050919050565b610cfa81610cdf565b82525050565b6000602082019050610d156000830184610cf1565b92915050565b6000604051905090565b600080fd5b600080fd5b610d3881610c55565b8114610d4357600080fd5b50565b600081359050610d5581610d2f565b92915050565b600080fd5b6000601f19601f8301169050919050565b7f4e487b7100000000000000000000000000000000000000000000000000000000600052604160045260246000fd5b610da982610d60565b810181811067ffffffffffffffff82111715610dc857610dc7610d71565b5b80604052505050565b6000610ddb610d1b565b9050610de78282610da0565b919050565b600067ffffffffffffffff821115610e0757610e06610d71565b5b602082029050602081019050919050565b600080fd5b6000610e30610e2b84610dec565b610dd1565b90508083825260208201905060208402830185811115610e5357610e52610e18565b5b835b81811015610e7c5780610e688882610d46565b845260208401935050602081019050610e55565b5050509392505050565b600082601f830112610e9b57610e9a610d5b565b5b8135610eab848260208601610e1d565b91505092915050565b60008060408385031215610ecb57610eca610d25565b5b6000610ed985828601610d46565b925050602083013567ffffffffffffffff811115610efa57610ef9610d2a565b5b610f0685828601610e86565b9150509250929050565b600080fd5b60008083601f840112610f2b57610f2a610d5b565b5b8235905067ffffffffffffffff811115610f4857610f47610f10565b5b602083019150836001820283011115610f6457610f63610e18565b5b9250929050565b60008060208385031215610f8257610f81610d25565b5b600083013567ffffffffffffffff811115610fa057610f9f610d2a565b5b610fac85828601610f15565b92509250509250929050565b600073ffffffffffffffffffffffffffffffffffffffff82169050919050565b6000610fe382610fb8565b9050919050565b610ff381610fd8565b82525050565b600060208201905061100e6000830184610fea565b92915050565b600063ffffffff82169050919050565b61102d81611014565b82525050565b60006020820190506110486000830184611024565b92915050565b600080fd5b600067ffffffffffffffff82111561106e5761106d610d71565b5b61107782610d60565b9050602081019050919050565b82818337600083830152505050565b60006110a66110a184611053565b610dd1565b9050828152602081018484840111156110c2576110c161104e565b5b6110cd848285611084565b509392505050565b600082601f8301126110ea576110e9610d5b565b5b81356110fa848260208601611093565b91505092915050565b60006020828403121561111957611118610d25565b5b600082013567ffffffffffffffff81111561113757611136610d2a565b5b611143848285016110d5565b91505092915050565b60008115159050919050565b6111618161114c565b82525050565b600081519050919050565b600082825260208201905092915050565b60005b838110156111a1578082015181840152602081019050611186565b838111156111b0576000848401525b50505050565b60006111c182611167565b6111cb8185611172565b93506111db818560208601611183565b6111e481610d60565b840191505092915050565b60006040820190506112046000830185611158565b818103602083015261121681846111b6565b90509392505050565b600067ffffffffffffffff82169050919050565b61123c8161121f565b82525050565b60006020820190506112576000830184611233565b92915050565b60006020828403121561127357611272610d25565b5b600061128184828501610d46565b91505092915050565b600060408201905061129f6000830185610fea565b6112ac6020830184610fea565b9392505050565b60006060820190506112c86000830186610c5f565b6112d56020830185610c5f565b6112e26040830184610c5f565b949350505050565b6000819050919050565b6112fd816112ea565b82525050565b600061ffff82169050919050565b61131a81611303565b82525050565b600060a08201905061133560008301886112f4565b6113426020830187611233565b61134f6040830186611311565b61135c6060830185611024565b6113696080830184611024565b9695505050505050565b60008151905061138281610d2f565b92915050565b60006020828403121561139e5761139d610d25565b5b60006113ac84828501611373565b91505092915050565b7f4e487b7100000000000000000000000000000000000000000000000000000000600052601160045260246000fd5b60006113ef82610c55565b91506113fa83610c55565b92508282101561140d5761140c6113b5565b5b828203905092915050565b7f4e487b7100000000000000000000000000000000000000000000000000000000600052603260045260246000fd5b7f4e487b7100000000000000000000000000000000000000000000000000000000600052601260045260246000fd5b600061148182610c55565b915061148c83610c55565b92508261149c5761149b611447565b5b828206905092915050565b600081905092915050565b50565b60006114c26000836114a7565b91506114cd826114b2565b600082019050919050565b60006114e3826114b5565b915081905091905056fea264697066735822122098e19a0acdbcdc20a0f1a22fe0f754cde4b56ac457f1a170cba9ea881c49b37364736f6c63430008090033",
  "devdoc": {
    "kind": "dev",
    "methods": {},
    "version": 1
  },
  "userdoc": {
    "kind": "user",
    "methods": {},
    "version": 1
  },
  "storageLayout": {
    "storage": [
      {
        "astId": 203,
        "contract": "contracts/Raffle.sol:Raffle",
        "label": "s_players",
        "offset": 0,
        "slot": "0",
        "type": "t_array(t_address_payable)dyn_storage"
      },
      {
        "astId": 220,
        "contract": "contracts/Raffle.sol:Raffle",
        "label": "s_recentWinner",
        "offset": 0,
        "slot": "1",
        "type": "t_address"
      },
      {
        "astId": 223,
        "contract": "contracts/Raffle.sol:Raffle",
        "label": "s_raffleState",
        "offset": 20,
        "slot": "1",
        "type": "t_enum(RaffleState)198"
      },
      {
        "astId": 225,
        "contract": "contracts/Raffle.sol:Raffle",
        "label": "s_lastTimeStamp",
        "offset": 0,
        "slot": "2",
        "type": "t_uint256"
      }
    ],
    "types": {
      "t_address": {
        "encoding": "inplace",
        "label": "address",
        "numberOfBytes": "20"
      },
      "t_address_payable": {
        "encoding": "inplace",
        "label": "address payable",
        "numberOfBytes": "20"
      },
      "t_array(t_address_payable)dyn_storage": {
        "base": "t_address_payable",
        "encoding": "dynamic_array",
        "label": "address payable[]",
        "numberOfBytes": "32"
      },
      "t_enum(RaffleState)198": {
        "encoding": "inplace",
        "label": "enum Raffle.RaffleState",
        "numberOfBytes": "1"
      },
      "t_uint256": {
        "encoding": "inplace",
        "label": "uint256",
        "numberOfBytes": "32"
      }
    }
  }
}